{
  "_format": "hh-sol-artifact-1",
  "contractName": "NFTMarketPlace",
  "sourceName": "contracts/NFTMarketPlace.sol",
  "abi": [
    {
      "inputs": [
        {
          "internalType": "uint256",
          "name": "_initialListingFee",
          "type": "uint256"
        },
        {
          "internalType": "address",
          "name": "_initialFeeRecipient",
          "type": "address"
        }
      ],
      "stateMutability": "nonpayable",
      "type": "constructor"
    },
    {
      "inputs": [
        {
          "internalType": "address",
          "name": "sender",
          "type": "address"
        },
        {
          "internalType": "uint256",
          "name": "tokenId",
          "type": "uint256"
        },
        {
          "internalType": "address",
          "name": "owner",
          "type": "address"
        }
      ],
      "name": "ERC721IncorrectOwner",
      "type": "error"
    },
    {
      "inputs": [
        {
          "internalType": "address",
          "name": "operator",
          "type": "address"
        },
        {
          "internalType": "uint256",
          "name": "tokenId",
          "type": "uint256"
        }
      ],
      "name": "ERC721InsufficientApproval",
      "type": "error"
    },
    {
      "inputs": [
        {
          "internalType": "address",
          "name": "approver",
          "type": "address"
        }
      ],
      "name": "ERC721InvalidApprover",
      "type": "error"
    },
    {
      "inputs": [
        {
          "internalType": "address",
          "name": "operator",
          "type": "address"
        }
      ],
      "name": "ERC721InvalidOperator",
      "type": "error"
    },
    {
      "inputs": [
        {
          "internalType": "address",
          "name": "owner",
          "type": "address"
        }
      ],
      "name": "ERC721InvalidOwner",
      "type": "error"
    },
    {
      "inputs": [
        {
          "internalType": "address",
          "name": "receiver",
          "type": "address"
        }
      ],
      "name": "ERC721InvalidReceiver",
      "type": "error"
    },
    {
      "inputs": [
        {
          "internalType": "address",
          "name": "sender",
          "type": "address"
        }
      ],
      "name": "ERC721InvalidSender",
      "type": "error"
    },
    {
      "inputs": [
        {
          "internalType": "uint256",
          "name": "tokenId",
          "type": "uint256"
        }
      ],
      "name": "ERC721NonexistentToken",
      "type": "error"
    },
    {
      "inputs": [
        {
          "internalType": "address",
          "name": "owner",
          "type": "address"
        }
      ],
      "name": "OwnableInvalidOwner",
      "type": "error"
    },
    {
      "inputs": [
        {
          "internalType": "address",
          "name": "account",
          "type": "address"
        }
      ],
      "name": "OwnableUnauthorizedAccount",
      "type": "error"
    },
    {
      "inputs": [],
      "name": "ReentrancyGuardReentrantCall",
      "type": "error"
    },
    {
      "anonymous": false,
      "inputs": [
        {
          "indexed": true,
          "internalType": "address",
          "name": "owner",
          "type": "address"
        },
        {
          "indexed": true,
          "internalType": "address",
          "name": "approved",
          "type": "address"
        },
        {
          "indexed": true,
          "internalType": "uint256",
          "name": "tokenId",
          "type": "uint256"
        }
      ],
      "name": "Approval",
      "type": "event"
    },
    {
      "anonymous": false,
      "inputs": [
        {
          "indexed": true,
          "internalType": "address",
          "name": "owner",
          "type": "address"
        },
        {
          "indexed": true,
          "internalType": "address",
          "name": "operator",
          "type": "address"
        },
        {
          "indexed": false,
          "internalType": "bool",
          "name": "approved",
          "type": "bool"
        }
      ],
      "name": "ApprovalForAll",
      "type": "event"
    },
    {
      "anonymous": false,
      "inputs": [
        {
          "indexed": false,
          "internalType": "address",
          "name": "newRecipient",
          "type": "address"
        }
      ],
      "name": "FeeRecipientUpdated",
      "type": "event"
    },
    {
      "anonymous": false,
      "inputs": [
        {
          "indexed": false,
          "internalType": "uint256",
          "name": "_initialFeeRecipient",
          "type": "uint256"
        }
      ],
      "name": "FeeRecipientUpdated",
      "type": "event"
    },
    {
      "anonymous": false,
      "inputs": [
        {
          "indexed": false,
          "internalType": "uint256",
          "name": "newFee",
          "type": "uint256"
        }
      ],
      "name": "ListingFeeUpdated",
      "type": "event"
    },
    {
      "anonymous": false,
      "inputs": [
        {
          "indexed": false,
          "internalType": "bool",
          "name": "isPaused",
          "type": "bool"
        }
      ],
      "name": "MarketplacePaused",
      "type": "event"
    },
    {
      "anonymous": false,
      "inputs": [
        {
          "indexed": true,
          "internalType": "uint256",
          "name": "tokenId",
          "type": "uint256"
        },
        {
          "indexed": true,
          "internalType": "address",
          "name": "seller",
          "type": "address"
        },
        {
          "indexed": false,
          "internalType": "uint256",
          "name": "price",
          "type": "uint256"
        }
      ],
      "name": "NFTListed",
      "type": "event"
    },
    {
      "anonymous": false,
      "inputs": [
        {
          "indexed": true,
          "internalType": "uint256",
          "name": "tokenId",
          "type": "uint256"
        },
        {
          "indexed": true,
          "internalType": "address",
          "name": "seller",
          "type": "address"
        },
        {
          "indexed": true,
          "internalType": "address",
          "name": "buyer",
          "type": "address"
        },
        {
          "indexed": false,
          "internalType": "uint256",
          "name": "price",
          "type": "uint256"
        }
      ],
      "name": "NFTSold",
      "type": "event"
    },
    {
      "anonymous": false,
      "inputs": [
        {
          "indexed": true,
          "internalType": "address",
          "name": "previousOwner",
          "type": "address"
        },
        {
          "indexed": true,
          "internalType": "address",
          "name": "newOwner",
          "type": "address"
        }
      ],
      "name": "OwnershipTransferred",
      "type": "event"
    },
    {
      "anonymous": false,
      "inputs": [
        {
          "indexed": true,
          "internalType": "address",
          "name": "from",
          "type": "address"
        },
        {
          "indexed": true,
          "internalType": "address",
          "name": "to",
          "type": "address"
        },
        {
          "indexed": true,
          "internalType": "uint256",
          "name": "tokenId",
          "type": "uint256"
        }
      ],
      "name": "Transfer",
      "type": "event"
    },
    {
      "inputs": [],
      "name": "MAX_PRICE",
      "outputs": [
        {
          "internalType": "uint256",
          "name": "",
          "type": "uint256"
        }
      ],
      "stateMutability": "view",
      "type": "function"
    },
    {
      "inputs": [
        {
          "internalType": "address",
          "name": "to",
          "type": "address"
        },
        {
          "internalType": "uint256",
          "name": "tokenId",
          "type": "uint256"
        }
      ],
      "name": "approve",
      "outputs": [],
      "stateMutability": "nonpayable",
      "type": "function"
    },
    {
      "inputs": [
        {
          "internalType": "address",
          "name": "owner",
          "type": "address"
        }
      ],
      "name": "balanceOf",
      "outputs": [
        {
          "internalType": "uint256",
          "name": "",
          "type": "uint256"
        }
      ],
      "stateMutability": "view",
      "type": "function"
    },
    {
      "inputs": [
        {
          "internalType": "uint256",
          "name": "tokenId",
          "type": "uint256"
        }
      ],
      "name": "buyNFT",
      "outputs": [],
      "stateMutability": "payable",
      "type": "function"
    },
    {
      "inputs": [],
      "name": "feeRecipient",
      "outputs": [
        {
          "internalType": "address",
          "name": "",
          "type": "address"
        }
      ],
      "stateMutability": "view",
      "type": "function"
    },
    {
      "inputs": [
        {
          "internalType": "uint256",
          "name": "tokenId",
          "type": "uint256"
        }
      ],
      "name": "getApproved",
      "outputs": [
        {
          "internalType": "address",
          "name": "",
          "type": "address"
        }
      ],
      "stateMutability": "view",
      "type": "function"
    },
    {
      "inputs": [
        {
          "internalType": "address",
          "name": "owner",
          "type": "address"
        },
        {
          "internalType": "address",
          "name": "operator",
          "type": "address"
        }
      ],
      "name": "isApprovedForAll",
      "outputs": [
        {
          "internalType": "bool",
          "name": "",
          "type": "bool"
        }
      ],
      "stateMutability": "view",
      "type": "function"
    },
    {
      "inputs": [
        {
          "internalType": "uint256",
          "name": "tokenId",
          "type": "uint256"
        },
        {
          "internalType": "uint256",
          "name": "price",
          "type": "uint256"
        }
      ],
      "name": "listNFTForSale",
      "outputs": [],
      "stateMutability": "payable",
      "type": "function"
    },
    {
      "inputs": [],
      "name": "listingFee",
      "outputs": [
        {
          "internalType": "uint256",
          "name": "",
          "type": "uint256"
        }
      ],
      "stateMutability": "view",
      "type": "function"
    },
    {
      "inputs": [
        {
          "internalType": "address",
          "name": "to",
          "type": "address"
        }
      ],
      "name": "mintNFT",
      "outputs": [],
      "stateMutability": "nonpayable",
      "type": "function"
    },
    {
      "inputs": [],
      "name": "name",
      "outputs": [
        {
          "internalType": "string",
          "name": "",
          "type": "string"
        }
      ],
      "stateMutability": "view",
      "type": "function"
    },
    {
      "inputs": [
        {
          "internalType": "uint256",
          "name": "",
          "type": "uint256"
        }
      ],
      "name": "nftPrices",
      "outputs": [
        {
          "internalType": "uint256",
          "name": "",
          "type": "uint256"
        }
      ],
      "stateMutability": "view",
      "type": "function"
    },
    {
      "inputs": [],
      "name": "owner",
      "outputs": [
        {
          "internalType": "address",
          "name": "",
          "type": "address"
        }
      ],
      "stateMutability": "view",
      "type": "function"
    },
    {
      "inputs": [
        {
          "internalType": "uint256",
          "name": "tokenId",
          "type": "uint256"
        }
      ],
      "name": "ownerOf",
      "outputs": [
        {
          "internalType": "address",
          "name": "",
          "type": "address"
        }
      ],
      "stateMutability": "view",
      "type": "function"
    },
    {
      "inputs": [],
      "name": "paused",
      "outputs": [
        {
          "internalType": "bool",
          "name": "",
          "type": "bool"
        }
      ],
      "stateMutability": "view",
      "type": "function"
    },
    {
      "inputs": [],
      "name": "renounceOwnership",
      "outputs": [],
      "stateMutability": "nonpayable",
      "type": "function"
    },
    {
      "inputs": [
        {
          "internalType": "address",
          "name": "from",
          "type": "address"
        },
        {
          "internalType": "address",
          "name": "to",
          "type": "address"
        },
        {
          "internalType": "uint256",
          "name": "tokenId",
          "type": "uint256"
        }
      ],
      "name": "safeTransferFrom",
      "outputs": [],
      "stateMutability": "nonpayable",
      "type": "function"
    },
    {
      "inputs": [
        {
          "internalType": "address",
          "name": "from",
          "type": "address"
        },
        {
          "internalType": "address",
          "name": "to",
          "type": "address"
        },
        {
          "internalType": "uint256",
          "name": "tokenId",
          "type": "uint256"
        },
        {
          "internalType": "bytes",
          "name": "data",
          "type": "bytes"
        }
      ],
      "name": "safeTransferFrom",
      "outputs": [],
      "stateMutability": "nonpayable",
      "type": "function"
    },
    {
      "inputs": [
        {
          "internalType": "address",
          "name": "operator",
          "type": "address"
        },
        {
          "internalType": "bool",
          "name": "approved",
          "type": "bool"
        }
      ],
      "name": "setApprovalForAll",
      "outputs": [],
      "stateMutability": "nonpayable",
      "type": "function"
    },
    {
      "inputs": [
        {
          "internalType": "address",
          "name": "_newRecipient",
          "type": "address"
        }
      ],
      "name": "setFeeRecipient",
      "outputs": [],
      "stateMutability": "nonpayable",
      "type": "function"
    },
    {
      "inputs": [
        {
          "internalType": "uint256",
          "name": "_newFee",
          "type": "uint256"
        }
      ],
      "name": "setListingFee",
      "outputs": [],
      "stateMutability": "nonpayable",
      "type": "function"
    },
    {
      "inputs": [
        {
          "internalType": "bytes4",
          "name": "interfaceId",
          "type": "bytes4"
        }
      ],
      "name": "supportsInterface",
      "outputs": [
        {
          "internalType": "bool",
          "name": "",
          "type": "bool"
        }
      ],
      "stateMutability": "view",
      "type": "function"
    },
    {
      "inputs": [],
      "name": "symbol",
      "outputs": [
        {
          "internalType": "string",
          "name": "",
          "type": "string"
        }
      ],
      "stateMutability": "view",
      "type": "function"
    },
    {
      "inputs": [],
      "name": "togglePause",
      "outputs": [],
      "stateMutability": "nonpayable",
      "type": "function"
    },
    {
      "inputs": [
        {
          "internalType": "uint256",
          "name": "tokenId",
          "type": "uint256"
        }
      ],
      "name": "tokenURI",
      "outputs": [
        {
          "internalType": "string",
          "name": "",
          "type": "string"
        }
      ],
      "stateMutability": "view",
      "type": "function"
    },
    {
      "inputs": [
        {
          "internalType": "address",
          "name": "from",
          "type": "address"
        },
        {
          "internalType": "address",
          "name": "to",
          "type": "address"
        },
        {
          "internalType": "uint256",
          "name": "tokenId",
          "type": "uint256"
        }
      ],
      "name": "transferFrom",
      "outputs": [],
      "stateMutability": "nonpayable",
      "type": "function"
    },
    {
      "inputs": [
        {
          "internalType": "address",
          "name": "newOwner",
          "type": "address"
        }
      ],
      "name": "transferOwnership",
      "outputs": [],
      "stateMutability": "nonpayable",
      "type": "function"
    }
  ],
  "bytecode": "0x608060405260016008553480156200001657600080fd5b50604051620039263803806200392683398181016040528101906200003c9190620003ec565b336040518060400160405280600e81526020017f4e46544d61726b6574506c6163650000000000000000000000000000000000008152506040518060400160405280600581526020017f4a524e46540000000000000000000000000000000000000000000000000000008152508160009081620000ba9190620006a3565b508060019081620000cc9190620006a3565b505050600073ffffffffffffffffffffffffffffffffffffffff168173ffffffffffffffffffffffffffffffffffffffff1603620001445760006040517f1e4fbdf70000000000000000000000000000000000000000000000000000000081526004016200013b91906200079b565b60405180910390fd5b62000155816200028160201b60201c565b50600160078190555060008211620001a4576040517f08c379a00000000000000000000000000000000000000000000000000000000081526004016200019b906200083f565b60405180910390fd5b600073ffffffffffffffffffffffffffffffffffffffff168173ffffffffffffffffffffffffffffffffffffffff160362000216576040517f08c379a00000000000000000000000000000000000000000000000000000000081526004016200020d90620008b1565b60405180910390fd5b81600a8190555080600b60006101000a81548173ffffffffffffffffffffffffffffffffffffffff021916908373ffffffffffffffffffffffffffffffffffffffff1602179055506000600b60146101000a81548160ff0219169083151502179055505050620008d3565b6000600660009054906101000a900473ffffffffffffffffffffffffffffffffffffffff16905081600660006101000a81548173ffffffffffffffffffffffffffffffffffffffff021916908373ffffffffffffffffffffffffffffffffffffffff1602179055508173ffffffffffffffffffffffffffffffffffffffff168173ffffffffffffffffffffffffffffffffffffffff167f8be0079c531659141344cd1fd0a4f28419497f9722a3daafe3b4186f6b6457e060405160405180910390a35050565b600080fd5b6000819050919050565b62000361816200034c565b81146200036d57600080fd5b50565b600081519050620003818162000356565b92915050565b600073ffffffffffffffffffffffffffffffffffffffff82169050919050565b6000620003b48262000387565b9050919050565b620003c681620003a7565b8114620003d257600080fd5b50565b600081519050620003e681620003bb565b92915050565b6000806040838503121562000406576200040562000347565b5b6000620004168582860162000370565b92505060206200042985828601620003d5565b9150509250929050565b600081519050919050565b7f4e487b7100000000000000000000000000000000000000000000000000000000600052604160045260246000fd5b7f4e487b7100000000000000000000000000000000000000000000000000000000600052602260045260246000fd5b60006002820490506001821680620004b557607f821691505b602082108103620004cb57620004ca6200046d565b5b50919050565b60008190508160005260206000209050919050565b60006020601f8301049050919050565b600082821b905092915050565b600060088302620005357fffffffffffffffffffffffffffffffffffffffffffffffffffffffffffffffff82620004f6565b620005418683620004f6565b95508019841693508086168417925050509392505050565b6000819050919050565b6000620005846200057e62000578846200034c565b62000559565b6200034c565b9050919050565b6000819050919050565b620005a08362000563565b620005b8620005af826200058b565b84845462000503565b825550505050565b600090565b620005cf620005c0565b620005dc81848462000595565b505050565b5b818110156200060457620005f8600082620005c5565b600181019050620005e2565b5050565b601f82111562000653576200061d81620004d1565b6200062884620004e6565b8101602085101562000638578190505b620006506200064785620004e6565b830182620005e1565b50505b505050565b600082821c905092915050565b6000620006786000198460080262000658565b1980831691505092915050565b600062000693838362000665565b9150826002028217905092915050565b620006ae8262000433565b67ffffffffffffffff811115620006ca57620006c96200043e565b5b620006d682546200049c565b620006e382828562000608565b600060209050601f8311600181146200071b576000841562000706578287015190505b62000712858262000685565b86555062000782565b601f1984166200072b86620004d1565b60005b8281101562000755578489015182556001820191506020850194506020810190506200072e565b8683101562000775578489015162000771601f89168262000665565b8355505b6001600288020188555050505b505050505050565b6200079581620003a7565b82525050565b6000602082019050620007b260008301846200078a565b92915050565b600082825260208201905092915050565b7f4c697374696e6720666565206d7573742062652067726561746572207468616e60008201527f2030000000000000000000000000000000000000000000000000000000000000602082015250565b600062000827602283620007b8565b91506200083482620007c9565b604082019050919050565b600060208201905081810360008301526200085a8162000818565b9050919050565b7f7a65726f20616464726573732064657465637465640000000000000000000000600082015250565b600062000899601583620007b8565b9150620008a68262000861565b602082019050919050565b60006020820190508181036000830152620008cc816200088a565b9050919050565b61304380620008e36000396000f3fe60806040526004361061019c5760003560e01c80636a1b7ecc116100ec578063b88d4fde1161008a578063d9f10a2b11610064578063d9f10a2b14610584578063e74b981b146105c1578063e985e9c5146105ea578063f2fde38b146106275761019c565b8063b88d4fde14610507578063c4ae316814610530578063c87b56dd146105475761019c565b80638da5cb5b116100c65780638da5cb5b1461046c57806395d89b4114610497578063a22cb465146104c2578063b2733b39146104eb5761019c565b80636a1b7ecc146103ed57806370a0823114610418578063715018a6146104555761019c565b806323b872dd1161015957806351ed82881161013357806351ed82881461034057806354ba0f271461035c5780635c975abb146103855780636352211e146103b05761019c565b806323b872dd146102c357806342842e0e146102ec57806346904840146103155761019c565b806301c11d96146101a157806301ffc9a7146101cc57806306fdde0314610209578063081812fc14610234578063095ea7b314610271578063131dbd091461029a575b600080fd5b3480156101ad57600080fd5b506101b6610650565b6040516101c391906123b1565b60405180910390f35b3480156101d857600080fd5b506101f360048036038101906101ee9190612438565b61065e565b6040516102009190612480565b60405180910390f35b34801561021557600080fd5b5061021e610740565b60405161022b919061252b565b60405180910390f35b34801561024057600080fd5b5061025b60048036038101906102569190612579565b6107d2565b60405161026891906125e7565b60405180910390f35b34801561027d57600080fd5b506102986004803603810190610293919061262e565b6107ee565b005b3480156102a657600080fd5b506102c160048036038101906102bc9190612579565b610804565b005b3480156102cf57600080fd5b506102ea60048036038101906102e5919061266e565b610890565b005b3480156102f857600080fd5b50610313600480360381019061030e919061266e565b610992565b005b34801561032157600080fd5b5061032a6109b2565b60405161033791906125e7565b60405180910390f35b61035a60048036038101906103559190612579565b6109d8565b005b34801561036857600080fd5b50610383600480360381019061037e91906126c1565b610bb8565b005b34801561039157600080fd5b5061039a610bed565b6040516103a79190612480565b60405180910390f35b3480156103bc57600080fd5b506103d760048036038101906103d29190612579565b610c00565b6040516103e491906125e7565b60405180910390f35b3480156103f957600080fd5b50610402610c12565b60405161040f91906123b1565b60405180910390f35b34801561042457600080fd5b5061043f600480360381019061043a91906126c1565b610c18565b60405161044c91906123b1565b60405180910390f35b34801561046157600080fd5b5061046a610cd2565b005b34801561047857600080fd5b50610481610ce6565b60405161048e91906125e7565b60405180910390f35b3480156104a357600080fd5b506104ac610d10565b6040516104b9919061252b565b60405180910390f35b3480156104ce57600080fd5b506104e960048036038101906104e4919061271a565b610da2565b005b6105056004803603810190610500919061275a565b610db8565b005b34801561051357600080fd5b5061052e600480360381019061052991906128cf565b610fef565b005b34801561053c57600080fd5b5061054561100c565b005b34801561055357600080fd5b5061056e60048036038101906105699190612579565b611086565b60405161057b919061252b565b60405180910390f35b34801561059057600080fd5b506105ab60048036038101906105a69190612579565b6110ef565b6040516105b891906123b1565b60405180910390f35b3480156105cd57600080fd5b506105e860048036038101906105e391906126c1565b611107565b005b3480156105f657600080fd5b50610611600480360381019061060c9190612952565b6111f9565b60405161061e9190612480565b60405180910390f35b34801561063357600080fd5b5061064e600480360381019061064991906126c1565b61128d565b005b69017b7883c0691660000081565b60007f80ac58cd000000000000000000000000000000000000000000000000000000007bffffffffffffffffffffffffffffffffffffffffffffffffffffffff1916827bffffffffffffffffffffffffffffffffffffffffffffffffffffffff1916148061072957507f5b5e139f000000000000000000000000000000000000000000000000000000007bffffffffffffffffffffffffffffffffffffffffffffffffffffffff1916827bffffffffffffffffffffffffffffffffffffffffffffffffffffffff1916145b80610739575061073882611313565b5b9050919050565b60606000805461074f906129c1565b80601f016020809104026020016040519081016040528092919081815260200182805461077b906129c1565b80156107c85780601f1061079d576101008083540402835291602001916107c8565b820191906000526020600020905b8154815290600101906020018083116107ab57829003601f168201915b5050505050905090565b60006107dd8261137d565b506107e782611405565b9050919050565b61080082826107fb611442565b61144a565b5050565b61080c61145c565b6000811161084f576040517f08c379a000000000000000000000000000000000000000000000000000000000815260040161084690612a64565b60405180910390fd5b80600a819055507f5fb4654f1efe30c6141eaa6855ffcb27e0b361d899b05e21b1a4d0b3e71e14db8160405161088591906123b1565b60405180910390a150565b600073ffffffffffffffffffffffffffffffffffffffff168273ffffffffffffffffffffffffffffffffffffffff16036109025760006040517f64a0ae920000000000000000000000000000000000000000000000000000000081526004016108f991906125e7565b60405180910390fd5b60006109168383610911611442565b6114e3565b90508373ffffffffffffffffffffffffffffffffffffffff168173ffffffffffffffffffffffffffffffffffffffff161461098c578382826040517f64283d7b00000000000000000000000000000000000000000000000000000000815260040161098393929190612a84565b60405180910390fd5b50505050565b6109ad83838360405180602001604052806000815250610fef565b505050565b600b60009054906101000a900473ffffffffffffffffffffffffffffffffffffffff1681565b6109e06116fd565b600b60149054906101000a900460ff1615610a30576040517f08c379a0000000000000000000000000000000000000000000000000000000008152600401610a2790612b07565b60405180910390fd5b60006009600083815260200190815260200160002054905060008111610a8b576040517f08c379a0000000000000000000000000000000000000000000000000000000008152600401610a8290612b73565b60405180910390fd5b803414610acd576040517f08c379a0000000000000000000000000000000000000000000000000000000008152600401610ac490612bdf565b60405180910390fd5b6000610ad883610c00565b9050610ae5813385611743565b8073ffffffffffffffffffffffffffffffffffffffff166108fc349081150290604051600060405180830381858888f19350505050158015610b2b573d6000803e3d6000fd5b50600060096000858152602001908152602001600020819055503373ffffffffffffffffffffffffffffffffffffffff168173ffffffffffffffffffffffffffffffffffffffff16847f8562eb94748e30bb0071e932744ce902b460c683474fcb3bfd567ffa16b1afb285604051610ba391906123b1565b60405180910390a45050610bb56118b0565b50565b610bc061145c565b6000600854905060086000815480929190610bda90612c2e565b9190505550610be982826118ba565b5050565b600b60149054906101000a900460ff1681565b6000610c0b8261137d565b9050919050565b600a5481565b60008073ffffffffffffffffffffffffffffffffffffffff168273ffffffffffffffffffffffffffffffffffffffff1603610c8b5760006040517f89c62b64000000000000000000000000000000000000000000000000000000008152600401610c8291906125e7565b60405180910390fd5b600360008373ffffffffffffffffffffffffffffffffffffffff1673ffffffffffffffffffffffffffffffffffffffff168152602001908152602001600020549050919050565b610cda61145c565b610ce460006118d8565b565b6000600660009054906101000a900473ffffffffffffffffffffffffffffffffffffffff16905090565b606060018054610d1f906129c1565b80601f0160208091040260200160405190810160405280929190818152602001828054610d4b906129c1565b8015610d985780601f10610d6d57610100808354040283529160200191610d98565b820191906000526020600020905b815481529060010190602001808311610d7b57829003601f168201915b5050505050905090565b610db4610dad611442565b838361199e565b5050565b600b60149054906101000a900460ff1615610e08576040517f08c379a0000000000000000000000000000000000000000000000000000000008152600401610dff90612b07565b60405180910390fd5b3373ffffffffffffffffffffffffffffffffffffffff16610e2883610c00565b73ffffffffffffffffffffffffffffffffffffffff1614610e7e576040517f08c379a0000000000000000000000000000000000000000000000000000000008152600401610e7590612cc2565b60405180910390fd5b600081118015610e98575069017b7883c069166000008111155b610ed7576040517f08c379a0000000000000000000000000000000000000000000000000000000008152600401610ece90612d54565b60405180910390fd5b600a543414610f1b576040517f08c379a0000000000000000000000000000000000000000000000000000000008152600401610f1290612dc0565b60405180910390fd5b806009600084815260200190815260200160002081905550600b60009054906101000a900473ffffffffffffffffffffffffffffffffffffffff1673ffffffffffffffffffffffffffffffffffffffff166108fc349081150290604051600060405180830381858888f19350505050158015610f9b573d6000803e3d6000fd5b503373ffffffffffffffffffffffffffffffffffffffff16827f5f9c03de076f5063cd3ebcfe8ef7aa8af378e4b35a83c77ba9777e97083879a283604051610fe391906123b1565b60405180910390a35050565b610ffa848484610890565b61100684848484611b0d565b50505050565b61101461145c565b600b60149054906101000a900460ff1615600b60146101000a81548160ff0219169083151502179055507f2d8cb32b79ced32c38fb4a61d8482c40627602feb2cc34b50d9b55eea376d88c600b60149054906101000a900460ff1660405161107c9190612480565b60405180910390a1565b60606110918261137d565b50600061109c611cc4565b905060008151116110bc57604051806020016040528060008152506110e7565b806110c684611cdb565b6040516020016110d7929190612e1c565b6040516020818303038152906040525b915050919050565b60096020528060005260406000206000915090505481565b61110f61145c565b600073ffffffffffffffffffffffffffffffffffffffff168173ffffffffffffffffffffffffffffffffffffffff160361117e576040517f08c379a000000000000000000000000000000000000000000000000000000000815260040161117590612eb2565b60405180910390fd5b80600b60006101000a81548173ffffffffffffffffffffffffffffffffffffffff021916908373ffffffffffffffffffffffffffffffffffffffff1602179055507f7a7b5a0a132f9e0581eb8527f66eae9ee89c2a3e79d4ac7e41a1f1f4d48a7fc2816040516111ee91906125e7565b60405180910390a150565b6000600560008473ffffffffffffffffffffffffffffffffffffffff1673ffffffffffffffffffffffffffffffffffffffff16815260200190815260200160002060008373ffffffffffffffffffffffffffffffffffffffff1673ffffffffffffffffffffffffffffffffffffffff16815260200190815260200160002060009054906101000a900460ff16905092915050565b61129561145c565b600073ffffffffffffffffffffffffffffffffffffffff168173ffffffffffffffffffffffffffffffffffffffff16036113075760006040517f1e4fbdf70000000000000000000000000000000000000000000000000000000081526004016112fe91906125e7565b60405180910390fd5b611310816118d8565b50565b60007f01ffc9a7000000000000000000000000000000000000000000000000000000007bffffffffffffffffffffffffffffffffffffffffffffffffffffffff1916827bffffffffffffffffffffffffffffffffffffffffffffffffffffffff1916149050919050565b60008061138983611da9565b9050600073ffffffffffffffffffffffffffffffffffffffff168173ffffffffffffffffffffffffffffffffffffffff16036113fc57826040517f7e2732890000000000000000000000000000000000000000000000000000000081526004016113f391906123b1565b60405180910390fd5b80915050919050565b60006004600083815260200190815260200160002060009054906101000a900473ffffffffffffffffffffffffffffffffffffffff169050919050565b600033905090565b6114578383836001611de6565b505050565b611464611442565b73ffffffffffffffffffffffffffffffffffffffff16611482610ce6565b73ffffffffffffffffffffffffffffffffffffffff16146114e1576114a5611442565b6040517f118cdaa70000000000000000000000000000000000000000000000000000000081526004016114d891906125e7565b60405180910390fd5b565b6000806114ef84611da9565b9050600073ffffffffffffffffffffffffffffffffffffffff168373ffffffffffffffffffffffffffffffffffffffff161461153157611530818486611fab565b5b600073ffffffffffffffffffffffffffffffffffffffff168173ffffffffffffffffffffffffffffffffffffffff16146115c257611573600085600080611de6565b6001600360008373ffffffffffffffffffffffffffffffffffffffff1673ffffffffffffffffffffffffffffffffffffffff168152602001908152602001600020600082825403925050819055505b600073ffffffffffffffffffffffffffffffffffffffff168573ffffffffffffffffffffffffffffffffffffffff1614611645576001600360008773ffffffffffffffffffffffffffffffffffffffff1673ffffffffffffffffffffffffffffffffffffffff168152602001908152602001600020600082825401925050819055505b846002600086815260200190815260200160002060006101000a81548173ffffffffffffffffffffffffffffffffffffffff021916908373ffffffffffffffffffffffffffffffffffffffff160217905550838573ffffffffffffffffffffffffffffffffffffffff168273ffffffffffffffffffffffffffffffffffffffff167fddf252ad1be2c89b69c2b068fc378daa952ba7f163c4a11628f55a4df523b3ef60405160405180910390a4809150509392505050565b600260075403611739576040517f3ee5aeb500000000000000000000000000000000000000000000000000000000815260040160405180910390fd5b6002600781905550565b600073ffffffffffffffffffffffffffffffffffffffff168273ffffffffffffffffffffffffffffffffffffffff16036117b55760006040517f64a0ae920000000000000000000000000000000000000000000000000000000081526004016117ac91906125e7565b60405180910390fd5b60006117c3838360006114e3565b9050600073ffffffffffffffffffffffffffffffffffffffff168173ffffffffffffffffffffffffffffffffffffffff160361183657816040517f7e27328900000000000000000000000000000000000000000000000000000000815260040161182d91906123b1565b60405180910390fd5b8373ffffffffffffffffffffffffffffffffffffffff168173ffffffffffffffffffffffffffffffffffffffff16146118aa578382826040517f64283d7b0000000000000000000000000000000000000000000000000000000081526004016118a193929190612a84565b60405180910390fd5b50505050565b6001600781905550565b6118d482826040518060200160405280600081525061206f565b5050565b6000600660009054906101000a900473ffffffffffffffffffffffffffffffffffffffff16905081600660006101000a81548173ffffffffffffffffffffffffffffffffffffffff021916908373ffffffffffffffffffffffffffffffffffffffff1602179055508173ffffffffffffffffffffffffffffffffffffffff168173ffffffffffffffffffffffffffffffffffffffff167f8be0079c531659141344cd1fd0a4f28419497f9722a3daafe3b4186f6b6457e060405160405180910390a35050565b600073ffffffffffffffffffffffffffffffffffffffff168273ffffffffffffffffffffffffffffffffffffffff1603611a0f57816040517f5b08ba18000000000000000000000000000000000000000000000000000000008152600401611a0691906125e7565b60405180910390fd5b80600560008573ffffffffffffffffffffffffffffffffffffffff1673ffffffffffffffffffffffffffffffffffffffff16815260200190815260200160002060008473ffffffffffffffffffffffffffffffffffffffff1673ffffffffffffffffffffffffffffffffffffffff16815260200190815260200160002060006101000a81548160ff0219169083151502179055508173ffffffffffffffffffffffffffffffffffffffff168373ffffffffffffffffffffffffffffffffffffffff167f17307eab39ab6107e8899845ad3d59bd9653f200f220920489ca2b5937696c3183604051611b009190612480565b60405180910390a3505050565b60008373ffffffffffffffffffffffffffffffffffffffff163b1115611cbe578273ffffffffffffffffffffffffffffffffffffffff1663150b7a02611b51611442565b8685856040518563ffffffff1660e01b8152600401611b739493929190612f27565b6020604051808303816000875af1925050508015611baf57506040513d601f19601f82011682018060405250810190611bac9190612f88565b60015b611c33573d8060008114611bdf576040519150601f19603f3d011682016040523d82523d6000602084013e611be4565b606091505b506000815103611c2b57836040517f64a0ae92000000000000000000000000000000000000000000000000000000008152600401611c2291906125e7565b60405180910390fd5b805181602001fd5b63150b7a0260e01b7bffffffffffffffffffffffffffffffffffffffffffffffffffffffff1916817bffffffffffffffffffffffffffffffffffffffffffffffffffffffff191614611cbc57836040517f64a0ae92000000000000000000000000000000000000000000000000000000008152600401611cb391906125e7565b60405180910390fd5b505b50505050565b606060405180602001604052806000815250905090565b606060006001611cea8461208b565b01905060008167ffffffffffffffff811115611d0957611d086127a4565b5b6040519080825280601f01601f191660200182016040528015611d3b5781602001600182028036833780820191505090505b509050600082602001820190505b600115611d9e578080600190039150507f3031323334353637383961626364656600000000000000000000000000000000600a86061a8153600a8581611d9257611d91612fb5565b5b04945060008503611d49575b819350505050919050565b60006002600083815260200190815260200160002060009054906101000a900473ffffffffffffffffffffffffffffffffffffffff169050919050565b8080611e1f5750600073ffffffffffffffffffffffffffffffffffffffff168273ffffffffffffffffffffffffffffffffffffffff1614155b15611f53576000611e2f8461137d565b9050600073ffffffffffffffffffffffffffffffffffffffff168373ffffffffffffffffffffffffffffffffffffffff1614158015611e9a57508273ffffffffffffffffffffffffffffffffffffffff168173ffffffffffffffffffffffffffffffffffffffff1614155b8015611ead5750611eab81846111f9565b155b15611eef57826040517fa9fbf51f000000000000000000000000000000000000000000000000000000008152600401611ee691906125e7565b60405180910390fd5b8115611f5157838573ffffffffffffffffffffffffffffffffffffffff168273ffffffffffffffffffffffffffffffffffffffff167f8c5be1e5ebec7d5bd14f71427d1e84f3dd0314c0f7b2291e5b200ac8c7c3b92560405160405180910390a45b505b836004600085815260200190815260200160002060006101000a81548173ffffffffffffffffffffffffffffffffffffffff021916908373ffffffffffffffffffffffffffffffffffffffff16021790555050505050565b611fb68383836121de565b61206a57600073ffffffffffffffffffffffffffffffffffffffff168373ffffffffffffffffffffffffffffffffffffffff160361202b57806040517f7e27328900000000000000000000000000000000000000000000000000000000815260040161202291906123b1565b60405180910390fd5b81816040517f177e802f000000000000000000000000000000000000000000000000000000008152600401612061929190612fe4565b60405180910390fd5b505050565b612079838361229f565b6120866000848484611b0d565b505050565b600080600090507a184f03e93ff9f4daa797ed6e38ed64bf6a1f01000000000000000083106120e9577a184f03e93ff9f4daa797ed6e38ed64bf6a1f01000000000000000083816120df576120de612fb5565b5b0492506040810190505b6d04ee2d6d415b85acef81000000008310612126576d04ee2d6d415b85acef8100000000838161211c5761211b612fb5565b5b0492506020810190505b662386f26fc10000831061215557662386f26fc10000838161214b5761214a612fb5565b5b0492506010810190505b6305f5e100831061217e576305f5e100838161217457612173612fb5565b5b0492506008810190505b61271083106121a357612710838161219957612198612fb5565b5b0492506004810190505b606483106121c657606483816121bc576121bb612fb5565b5b0492506002810190505b600a83106121d5576001810190505b80915050919050565b60008073ffffffffffffffffffffffffffffffffffffffff168373ffffffffffffffffffffffffffffffffffffffff161415801561229657508273ffffffffffffffffffffffffffffffffffffffff168473ffffffffffffffffffffffffffffffffffffffff161480612257575061225684846111f9565b5b8061229557508273ffffffffffffffffffffffffffffffffffffffff1661227d83611405565b73ffffffffffffffffffffffffffffffffffffffff16145b5b90509392505050565b600073ffffffffffffffffffffffffffffffffffffffff168273ffffffffffffffffffffffffffffffffffffffff16036123115760006040517f64a0ae9200000000000000000000000000000000000000000000000000000000815260040161230891906125e7565b60405180910390fd5b600061231f838360006114e3565b9050600073ffffffffffffffffffffffffffffffffffffffff168173ffffffffffffffffffffffffffffffffffffffff16146123935760006040517f73c6ac6e00000000000000000000000000000000000000000000000000000000815260040161238a91906125e7565b60405180910390fd5b505050565b6000819050919050565b6123ab81612398565b82525050565b60006020820190506123c660008301846123a2565b92915050565b6000604051905090565b600080fd5b600080fd5b60007fffffffff0000000000000000000000000000000000000000000000000000000082169050919050565b612415816123e0565b811461242057600080fd5b50565b6000813590506124328161240c565b92915050565b60006020828403121561244e5761244d6123d6565b5b600061245c84828501612423565b91505092915050565b60008115159050919050565b61247a81612465565b82525050565b60006020820190506124956000830184612471565b92915050565b600081519050919050565b600082825260208201905092915050565b60005b838110156124d55780820151818401526020810190506124ba565b60008484015250505050565b6000601f19601f8301169050919050565b60006124fd8261249b565b61250781856124a6565b93506125178185602086016124b7565b612520816124e1565b840191505092915050565b6000602082019050818103600083015261254581846124f2565b905092915050565b61255681612398565b811461256157600080fd5b50565b6000813590506125738161254d565b92915050565b60006020828403121561258f5761258e6123d6565b5b600061259d84828501612564565b91505092915050565b600073ffffffffffffffffffffffffffffffffffffffff82169050919050565b60006125d1826125a6565b9050919050565b6125e1816125c6565b82525050565b60006020820190506125fc60008301846125d8565b92915050565b61260b816125c6565b811461261657600080fd5b50565b60008135905061262881612602565b92915050565b60008060408385031215612645576126446123d6565b5b600061265385828601612619565b925050602061266485828601612564565b9150509250929050565b600080600060608486031215612687576126866123d6565b5b600061269586828701612619565b93505060206126a686828701612619565b92505060406126b786828701612564565b9150509250925092565b6000602082840312156126d7576126d66123d6565b5b60006126e584828501612619565b91505092915050565b6126f781612465565b811461270257600080fd5b50565b600081359050612714816126ee565b92915050565b60008060408385031215612731576127306123d6565b5b600061273f85828601612619565b925050602061275085828601612705565b9150509250929050565b60008060408385031215612771576127706123d6565b5b600061277f85828601612564565b925050602061279085828601612564565b9150509250929050565b600080fd5b600080fd5b7f4e487b7100000000000000000000000000000000000000000000000000000000600052604160045260246000fd5b6127dc826124e1565b810181811067ffffffffffffffff821117156127fb576127fa6127a4565b5b80604052505050565b600061280e6123cc565b905061281a82826127d3565b919050565b600067ffffffffffffffff82111561283a576128396127a4565b5b612843826124e1565b9050602081019050919050565b82818337600083830152505050565b600061287261286d8461281f565b612804565b90508281526020810184848401111561288e5761288d61279f565b5b612899848285612850565b509392505050565b600082601f8301126128b6576128b561279a565b5b81356128c684826020860161285f565b91505092915050565b600080600080608085870312156128e9576128e86123d6565b5b60006128f787828801612619565b945050602061290887828801612619565b935050604061291987828801612564565b925050606085013567ffffffffffffffff81111561293a576129396123db565b5b612946878288016128a1565b91505092959194509250565b60008060408385031215612969576129686123d6565b5b600061297785828601612619565b925050602061298885828601612619565b9150509250929050565b7f4e487b7100000000000000000000000000000000000000000000000000000000600052602260045260246000fd5b600060028204905060018216806129d957607f821691505b6020821081036129ec576129eb612992565b5b50919050565b7f4c697374696e67206665652063616e6e6f74206265206c657373207468616e2060008201527f3000000000000000000000000000000000000000000000000000000000000000602082015250565b6000612a4e6021836124a6565b9150612a59826129f2565b604082019050919050565b60006020820190508181036000830152612a7d81612a41565b9050919050565b6000606082019050612a9960008301866125d8565b612aa660208301856123a2565b612ab360408301846125d8565b949350505050565b7f4d61726b6574706c616365206973207061757365640000000000000000000000600082015250565b6000612af16015836124a6565b9150612afc82612abb565b602082019050919050565b60006020820190508181036000830152612b2081612ae4565b9050919050565b7f4e4654206e6f7420666f722073616c6500000000000000000000000000000000600082015250565b6000612b5d6010836124a6565b9150612b6882612b27565b602082019050919050565b60006020820190508181036000830152612b8c81612b50565b9050919050565b7f57726f6e67207072696365000000000000000000000000000000000000000000600082015250565b6000612bc9600b836124a6565b9150612bd482612b93565b602082019050919050565b60006020820190508181036000830152612bf881612bbc565b9050919050565b7f4e487b7100000000000000000000000000000000000000000000000000000000600052601160045260246000fd5b6000612c3982612398565b91507fffffffffffffffffffffffffffffffffffffffffffffffffffffffffffffffff8203612c6b57612c6a612bff565b5b600182019050919050565b7f4e6f7420746865206f776e6572206f662074686520746f6b656e000000000000600082015250565b6000612cac601a836124a6565b9150612cb782612c76565b602082019050919050565b60006020820190508181036000830152612cdb81612c9f565b9050919050565b7f5072696365206d7573742062652077697468696e20612076616c69642072616e60008201527f6765000000000000000000000000000000000000000000000000000000000000602082015250565b6000612d3e6022836124a6565b9150612d4982612ce2565b604082019050919050565b60006020820190508181036000830152612d6d81612d31565b9050919050565b7f496e636f7272656374206c697374696e67206665650000000000000000000000600082015250565b6000612daa6015836124a6565b9150612db582612d74565b602082019050919050565b60006020820190508181036000830152612dd981612d9d565b9050919050565b600081905092915050565b6000612df68261249b565b612e008185612de0565b9350612e108185602086016124b7565b80840191505092915050565b6000612e288285612deb565b9150612e348284612deb565b91508190509392505050565b7f46656520726563697069656e742063616e6e6f74206265207a65726f2061646460008201527f7265737300000000000000000000000000000000000000000000000000000000602082015250565b6000612e9c6024836124a6565b9150612ea782612e40565b604082019050919050565b60006020820190508181036000830152612ecb81612e8f565b9050919050565b600081519050919050565b600082825260208201905092915050565b6000612ef982612ed2565b612f038185612edd565b9350612f138185602086016124b7565b612f1c816124e1565b840191505092915050565b6000608082019050612f3c60008301876125d8565b612f4960208301866125d8565b612f5660408301856123a2565b8181036060830152612f688184612eee565b905095945050505050565b600081519050612f828161240c565b92915050565b600060208284031215612f9e57612f9d6123d6565b5b6000612fac84828501612f73565b91505092915050565b7f4e487b7100000000000000000000000000000000000000000000000000000000600052601260045260246000fd5b6000604082019050612ff960008301856125d8565b61300660208301846123a2565b939250505056fea2646970667358221220611a2c13ae5afaae4b61f1e4c30365aec76c632310043afcfacfa93c5202005964736f6c63430008180033",
  "linkReferences": {},
  "deployedLinkReferences": {}
}